{
  "_format": "hh-sol-artifact-1",
  "contractName": "EarlyRetire",
  "sourceName": "contracts/EarlyRetire.sol",
  "abi": [
    {
      "anonymous": false,
      "inputs": [
        {
          "indexed": true,
          "internalType": "address",
          "name": "user",
          "type": "address"
        },
        {
          "indexed": false,
          "internalType": "uint256",
          "name": "amount",
          "type": "uint256"
        },
        {
          "indexed": false,
          "internalType": "uint256",
          "name": "date",
          "type": "uint256"
        }
      ],
      "name": "Invest",
      "type": "event"
    },
    {
      "anonymous": false,
      "inputs": [
        {
          "indexed": true,
          "internalType": "address",
          "name": "user",
          "type": "address"
        },
        {
          "indexed": false,
          "internalType": "uint256",
          "name": "amount",
          "type": "uint256"
        },
        {
          "indexed": false,
          "internalType": "uint256",
          "name": "date",
          "type": "uint256"
        }
      ],
      "name": "Withdraw",
      "type": "event"
    },
    {
      "inputs": [],
      "name": "allInvestments",
      "outputs": [
        {
          "internalType": "uint256",
          "name": "",
          "type": "uint256"
        }
      ],
      "stateMutability": "view",
      "type": "function"
    },
    {
      "inputs": [],
      "name": "getUserInvestments",
      "outputs": [
        {
          "components": [
            {
              "internalType": "uint256",
              "name": "amount",
              "type": "uint256"
            },
            {
              "internalType": "uint256",
              "name": "date",
              "type": "uint256"
            }
          ],
          "internalType": "struct Investment[]",
          "name": "",
          "type": "tuple[]"
        }
      ],
      "stateMutability": "view",
      "type": "function"
    },
    {
      "inputs": [],
      "name": "getWithdrawableAmount",
      "outputs": [
        {
          "internalType": "uint256",
          "name": "",
          "type": "uint256"
        }
      ],
      "stateMutability": "view",
      "type": "function"
    },
    {
      "inputs": [],
      "name": "invest",
      "outputs": [],
      "stateMutability": "payable",
      "type": "function"
    },
    {
      "inputs": [],
      "name": "numberOfInvestors",
      "outputs": [
        {
          "internalType": "uint256",
          "name": "",
          "type": "uint256"
        }
      ],
      "stateMutability": "view",
      "type": "function"
    },
    {
      "inputs": [
        {
          "internalType": "address",
          "name": "",
          "type": "address"
        }
      ],
      "name": "users",
      "outputs": [
        {
          "internalType": "uint256",
          "name": "totalInvestments",
          "type": "uint256"
        },
        {
          "internalType": "uint256",
          "name": "lastDeposit",
          "type": "uint256"
        }
      ],
      "stateMutability": "view",
      "type": "function"
    },
    {
      "inputs": [],
      "name": "withdraw",
      "outputs": [],
      "stateMutability": "payable",
      "type": "function"
    }
  ],
  "bytecode": "0x6080604052600060025534801561001557600080fd5b506001600081905550610c708061002d6000396000f3fe6080604052600436106100705760003560e01c8063a63d45e51161004e578063a63d45e5146100d5578063a87430ba14610100578063d9b6aec41461013e578063e8b5e51f1461016957610070565b80631af2c9fd146100755780633ccfd60b146100a057806390be10cc146100aa575b600080fd5b34801561008157600080fd5b5061008a610173565b604051610097919061096e565b60405180910390f35b6100a8610179565b005b3480156100b657600080fd5b506100bf6103fd565b6040516100cc919061096e565b60405180910390f35b3480156100e157600080fd5b506100ea6104de565b6040516100f791906108ec565b60405180910390f35b34801561010c57600080fd5b506101276004803603810190610122919061075f565b610591565b604051610135929190610989565b60405180910390f35b34801561014a57600080fd5b506101536105b5565b604051610160919061096e565b60405180910390f35b6101716105bb565b005b60015481565b600260005414156101bf576040517f08c379a00000000000000000000000000000000000000000000000000000000081526004016101b69061092e565b60405180910390fd5b60026000819055506000600360003373ffffffffffffffffffffffffffffffffffffffff1673ffffffffffffffffffffffffffffffffffffffff1681526020019081526020016000209050600080826002015414610221578160020154610223565b425b905060006018603c8084426102389190610a8e565b6102429190610a5d565b61024c9190610a5d565b6102569190610a5d565b905060008360000154148061026b5750600081145b156102ab576040517f08c379a00000000000000000000000000000000000000000000000000000000081526004016102a29061094e565b60405180910390fd5b60008160146102ba9190610a5d565b84600001546102c99190610a5d565b9050808460000160008282546102df9190610a8e565b925050819055504284600201819055506000803373ffffffffffffffffffffffffffffffffffffffff1634604051610316906108d7565b60006040518083038185875af1925050503d8060008114610353576040519150601f19603f3d011682016040523d82523d6000602084013e610358565b606091505b50915091508161039d576040517f08c379a00000000000000000000000000000000000000000000000000000000081526004016103949061090e565b60405180910390fd5b3373ffffffffffffffffffffffffffffffffffffffff167ff279e6a1f5e320cca91135676d9cb6e44ca8a08c0b88342bcdb1144f6511b56884426040516103e5929190610989565b60405180910390a25050505050506001600081905550565b600080600360003373ffffffffffffffffffffffffffffffffffffffff1673ffffffffffffffffffffffffffffffffffffffff168152602001908152602001600020905060008082600201541461045857816002015461045a565b425b905060006018603c80844261046f9190610a8e565b6104799190610a5d565b6104839190610a5d565b61048d9190610a5d565b90506000836000015414806104a25750600081145b156104b357600093505050506104db565b60008160146104c29190610a5d565b84600001546104d19190610a5d565b9050809450505050505b90565b6060600360003373ffffffffffffffffffffffffffffffffffffffff1673ffffffffffffffffffffffffffffffffffffffff168152602001908152602001600020600101805480602002602001604051908101604052809291908181526020016000905b8282101561058857838290600052602060002090600202016040518060400160405290816000820154815260200160018201548152505081526020019060010190610542565b50505050905090565b60036020528060005260406000206000915090508060000154908060020154905082565b60025481565b6000600360003373ffffffffffffffffffffffffffffffffffffffff1673ffffffffffffffffffffffffffffffffffffffff168152602001908152602001600020600101805490501415610622576001600081548092919061061c90610afe565b91905055505b6000600360003373ffffffffffffffffffffffffffffffffffffffff1673ffffffffffffffffffffffffffffffffffffffff168152602001908152602001600020905060006040518060400160405280348152602001428152509050348260000160008282546106929190610a07565b92505081905550816001018190806001815401808255809150506001900390600052602060002090600202016000909190919091506000820151816000015560208201518160010155505034600260008282546106ef9190610a07565b925050819055503373ffffffffffffffffffffffffffffffffffffffff167f4ae4bd7655e0d350876a23cd90c4227b13db560e34435c6a488150a9c844bf5f344260405161073e929190610989565b60405180910390a25050565b60008135905061075981610c23565b92915050565b60006020828403121561077157600080fd5b600061077f8482850161074a565b91505092915050565b6000610794838361088a565b60408301905092915050565b60006107ab826109c2565b6107b581856109da565b93506107c0836109b2565b8060005b838110156107f15781516107d88882610788565b97506107e3836109cd565b9250506001810190506107c4565b5085935050505092915050565b600061080b6014836109f6565b915061081682610ba5565b602082019050919050565b600061082e6000836109eb565b915061083982610bce565b600082019050919050565b6000610851601f836109f6565b915061085c82610bd1565b602082019050919050565b60006108746016836109f6565b915061087f82610bfa565b602082019050919050565b6040820160008201516108a060008501826108b9565b5060208201516108b360208501826108b9565b50505050565b6108c281610af4565b82525050565b6108d181610af4565b82525050565b60006108e282610821565b9150819050919050565b6000602082019050818103600083015261090681846107a0565b905092915050565b60006020820190508181036000830152610927816107fe565b9050919050565b6000602082019050818103600083015261094781610844565b9050919050565b6000602082019050818103600083015261096781610867565b9050919050565b600060208201905061098360008301846108c8565b92915050565b600060408201905061099e60008301856108c8565b6109ab60208301846108c8565b9392505050565b6000819050602082019050919050565b600081519050919050565b6000602082019050919050565b600082825260208201905092915050565b600081905092915050565b600082825260208201905092915050565b6000610a1282610af4565b9150610a1d83610af4565b9250827fffffffffffffffffffffffffffffffffffffffffffffffffffffffffffffffff03821115610a5257610a51610b47565b5b828201905092915050565b6000610a6882610af4565b9150610a7383610af4565b925082610a8357610a82610b76565b5b828204905092915050565b6000610a9982610af4565b9150610aa483610af4565b925082821015610ab757610ab6610b47565b5b828203905092915050565b6000610acd82610ad4565b9050919050565b600073ffffffffffffffffffffffffffffffffffffffff82169050919050565b6000819050919050565b6000610b0982610af4565b91507fffffffffffffffffffffffffffffffffffffffffffffffffffffffffffffffff821415610b3c57610b3b610b47565b5b600182019050919050565b7f4e487b7100000000000000000000000000000000000000000000000000000000600052601160045260246000fd5b7f4e487b7100000000000000000000000000000000000000000000000000000000600052601260045260246000fd5b7f4661696c656420746f2073656e64204574686572000000000000000000000000600082015250565b50565b7f5265656e7472616e637947756172643a207265656e7472616e742063616c6c00600082015250565b7f4e6f20776974686472617761626c6520616d6f756e7400000000000000000000600082015250565b610c2c81610ac2565b8114610c3757600080fd5b5056fea264697066735822122067b456d102563d90fe69ccedd710b4a42606207f03ba46894d067dc6eb6d3fed64736f6c63430008040033",
  "linkReferences": {},
  "deployedLinkReferences": {}
}